:1000000023C53DC53CC53BC53AC539C538C537C50F
:1000100036C535C534C533C532C531C530C52FC524
:100020002EC52DC52CC5B9C7C6C7CBC7CFC7D7C727
:10003000DEC7E8C70B3E41414141424242423C00DB
:1000400006FFFFFFFFFFFF000000000000005F0051
:10005000000007000700147F147F14242A7F2A124F
:10006000231308646236495522500005030000003E
:100070001C2241000041221C00082A1C2A080808F2
:100080003E080800503000000808080808006060BA
:10009000000020100804023E5149453E00427F40C6
:1000A0000042615149462141454B311814127F10DD
:1000B00027454545393C4A49493001710905033610
:1000C00049494936064949291E003636000000567E
:1000D0003600000008142241141414141441221490
:1000E00008000201510906324979413E7E11111181
:1000F0007E7F494949363E414141227F4141221C90
:100100007F494949417F090901013E414151327FFF
:100110000808087F00417F41002040413F017F08DF
:100120001422417F404040407F0204027F7F040848
:10013000107F3E4141413E7F090909063E41512160
:100140005E7F09192946464949493101017F01016C
:100150003F4040403F1F2040201F7F2018207F63EA
:1001600014081463030478040361514945430000F3
:100170007F4141020408102041417F000004020138
:100180000204404040404000010204002054545406
:10019000787F484444383844444420384444487FB5
:1001A0003854545418087E090102081454543C7FF2
:1001B0000804047800447D40002040443D00007F56
:1001C00010284400417F40007C041804787C080417
:1001D000047838444444387C14141408081414185F
:1001E0007C7C080404084854545420043F444020B4
:1001F0003C4040207C1C2040201C3C4030403C4483
:10020000281028440C5050503C4464544C4400087E
:1002100036410000007F0000004136080008082A2F
:100220001C08081C2A0808474C4344205465737472
:10023000206A3D256400FF01010101010101010166
:10024000010101010101010101010101010101019E
:10025000010101010101010101010101010101018E
:10026000010101010101010101010101010101017E
:10027000010101010101010101010101010101016E
:10028000010101010101010101010101010101015E
:10029000010101010101010101010101010101014E
:1002A000010101010101010101010101010101013E
:1002B0000101010101FFFF0000000000000000003B
:1002C000000000000000000000000000000000002E
:1002D000000000000000000000000000000000001E
:1002E000000000000000000000000000000000000E
:1002F00000000000000000000000000000000000FE
:1003000000008080808000000000000000000000ED
:1003100000000000000000000000000000000000DD
:1003200000000000000000000000000000000000CD
:100330000000000000FFFF000000000000000000BF
:10034000000000000000000000000000000000802D
:10035000808080800000008080C0C080000080809D
:10036000C0C0C00000000000000080C0C0800000CD
:100370000000000080C0C0800000000000000000FD
:100380000003FFFFFFFFF0000000000080C0C080FE
:100390000000000000000000008FCFCFCFCFC08052
:1003A000000000000000000000000000000000004D
:1003B0000000000000FFFF0000000000000000003F
:1003C00000000000E0F0F8F87810000000000000E5
:1003D0001FFFFFFFFFF0000FFFFFFFFFF800000708
:1003E0001FFFFFFEF8C000000000031FFFFFFCF02E
:1003F00080000003071F3F7FFEFCF8E0C080000084
:10040000000003FFFFFFFFF800000000031F7FFF55
:10041000FCF080000000007CFFFFFFFFC7C3C7CFD8
:10042000FFFEFCF8E00000000000000000000000FB
:100430000000000000FFFF000000000000000000BE
:100440000000FCFFFFFFFFC380808080808080C0B1
:10045000C0E3FFFFFF7F3E3C3C3F3F1F1F3F3E3C52
:100460003E3F3F1F0F070000000000C0FFFFFFFFDF
:100470003F003C3C3C3C3C3C3D3F3F3F1F0F0000AD
:100480000000003F3F3F3F3F000000000080E0FFD2
:10049000FFFF3F3E3C3C3C3C3C3D3D3F3F3F3F3F00
:1004A0003F3F1F1F0F03000000000000000000007E
:1004B0000000000000FFFF0000000000000000003E
:1004C00000000001030707070707070707070703DF
:1004D0000303010100000000000000000000000014
:1004E000000000000000000000040F1F1F0F0701A4
:1004F00000000000000000000000000000000000FC
:100500000000000000000000000000040E1F1F0F8C
:1005100007010000000000000000000000000000D3
:1005200000000000000000000000000000000000CB
:100530000000000000FFFF000000000000000000BD
:1005400000000000000000000000000000000000AB
:10055000000000000000000000000000000000009B
:10056000000000000000000000000000000000008B
:10057000000000000000000000000000000000007B
:10058000000000000000000000000000000000006B
:10059000000000000000000000000000000000005B
:1005A000000000000000000000000000000000004B
:1005B0000000000000FFFF808080808080808080BD
:1005C000808080808080808080808080808080802B
:1005D000808080808080808080808080808080801B
:1005E000808080808080808080808080808080800B
:1005F00080808080808080808080808080808080FB
:1006000080808080808080808080808080808080EA
:1006100080808080808080808080808080808080DA
:1006200080808080808080808080808080808080CA
:100630008080808080FF000000000000000000003B
:1006400000000000000000000000000080C04040EA
:100650004040C0804040404040C00080808000005A
:10066000000000000000000000000000000000008A
:10067000000000000000000000000000000000007A
:10068000000000000000000000000000000080806A
:100690008080804040404040C000C040404040C05A
:1006A00080000000000000000000000000000000CA
:1006B000000000000000000000000000000000003A
:1006C000000000000000000000C0701E110004C403
:1006D0003C0605070808080808070F10101011113C
:1006E0001F207E42C48488F800F0302040C0800083
:1006F000000000000000000000000000000080403A
:10070000602010F0F0888C8444427E07191110108C
:1007100010130C0F78900810100733C4749414143D
:100720001B1C7080000000000000000000000000A2
:1007300000000000000000000000000000000000B9
:10074000000000000000E09884878183E2320F01FE
:1007500000000000000000F0888808081010708079
:1007600020202040408080000003060408181F80DD
:10077000BEC2CC8810F000F01888C4E2B213100892
:100780000C040603000080C040402020A020701010
:100790001808888898E102010100010100011E3259
:1007A000A2A3A5A5ACB080000000000000000000DE
:1007B0000000000000000000000000000000000039
:1007C0000000C0602C2B283030A8E80E010000008B
:1007D0000000000080404040808081010101010351
:1007E00006040C0808080FD461A2C2C48CD800E724
:1007F0003871F3E3C7FB00FFC7E371302FC000007F
:100800000000000000000FE81818140C0A9BA11D3E
:1008100045C3C3A2A2633EC0000000000000000068
:10082000030CE8203030292F28E080000000000071
:1008300000000000000000000000000000000000B8
:10084000F0484744444444641E0300000000000094
:100850000000C0300F1818283030E01F80BEA2C240
:10086000C2448488F800F61D38307161A23F00FB55
:100870000E1C383071BE00FF7130181C8EF900005C
:100880000000000000000003FA8E87454362223C0E
:10089000031D1010100808080F0010F80888888839
:1008A0008888B8633C44444444444758600000008E
:1008B00000000000000000000000000000181611F9
:1008C00011111111111D071C132121212242427AFD
:1008D0000478458586868A0A0CF487743B28303074
:1008E0005161E3360054878A0E1C1C38F00798BE0D
:1008F000C3C78E1C18EF00FF1C0C8E45E3BE000022
:1009000000000000000000000080C04040202030B7
:1009100010F010F80808888484444C700F322023AB
:1009200020212111161807191111111111131E0080
:1009300000000000000000000000000000000000B7
:1009400000000000000000000000000000000000A7
:100950000000000000000001010101020204040483
:1009600008080F001F31216243458E8AF500EF38D9
:100970007171E3C7CEFB00FBC7C3E3513038EF0012
:10098000F88884444222213718070808080404061E
:10099000020300010101000000000000000000004F
:1009A0000000000000000000000000000000000047
:1009B0000000000000000000000000000000000037
:1009C0000000000000000000000000000000000027
:1009D0000000000000000000000000000000000017
:1009E0000000000000000000000000000000030400
:1009F00004081811333E003E3110180804060300A5
:100A000000000000000000000000000000000000E6
:100A100000000000000000000000000000000000D6
:100A200000000000000000000000000000000000C6
:100A300000000000000030313233343536373839A9
:100A4000414243444546000011241FBECFE5D4E097
:100A5000DEBFCDBF10E0A0E6B0E0E0E7F2E102C00B
:100A600005900D92AA36B107D9F720E0AAE6B0E0CA
:100A700001C01D92A237B207E1F76ED2F7C3C0CA18
:100A80000F931F93CF93DF93D82FC62F162F169552
:100A900016951695612F26D2DFD1DED1082F612F52
:100AA0008D2F20D2C77081E090E002C0880F991F7F
:100AB000CA95E2F7802B95D180E009D2DF91CF91E2
:100AC0001F910F910895DF92EF92FF920F931F9362
:100AD000CF93DF93C82FF62E142F022F442381F0DB
:100AE000D42ED60ED62FEE24EA94E20EE80E6D2F09
:100AF0008C2FC6DF6D2F8E2DC3DFDF5FDD12F7CFAA
:100B0000002369F00C0FDFEFDF0DD10F6F2D8C2F5D
:100B1000B7DF6D2F8C2FB4DFCF5F0C13F7CFDF91D2
:100B2000CF911F910F91FF90EF90DF9008954F921A
:100B30005F926F927F928F929F92AF92BF92CF926D
:100B4000DF92EF92FF920F931F93CF93DF93662E66
:100B5000462E481A042F10E09801220F331F43E05D
:100B600050E06A01C21AD30A862E962E0F2EF6E0A6
:100B7000AF2EB12CF02DE12CF12C582E561AC62D8B
:100B8000C00F6C2F752C790C872D7ADFD62DD01BDA
:100B90006D2F872D75DF6C2F782C750C872D70DFEE
:100BA0006D2F872D6DDFC419692D8C2F69DF682D9E
:100BB0008C2F66DFD419692D8D2F62DF682D8D2F64
:100BC0005FDFDD201CF4CA0CDB1C0CC0C701801BDE
:100BD000910B880F991F880F991F0A96C80ED91E6E
:100BE000015011098FEFE81AF80A93948A9484E06F
:100BF000A80EB11C0E151F0514F6DF91CF911F91A1
:100C00000F91FF90EF90DF90CF90BF90AF909F90AB
:100C10008F907F906F905F904F9008950F931F93E8
:100C2000CF93DF93082F10E000521109C801880FFD
:100C3000991F880F991F080F191FE801C95BDF4F23
:100C4000045B1F4FFE018491CCD02196C017D107C1
:100C5000C9F780E0C6D080E03AD1DF91CF911F91F3
:100C60000F9108950F931F93CF93DF93882361F023
:100C7000C0E090E0EC2FF0E0EC5CFF4FE491CE0F91
:100C80009F5F8913F7CF01C0C0E0D0E0FE01EC5CAC
:100C9000FF4F0491002351F0CB5CDF4F10E0FE01C9
:100CA00084919FD01F5F21960113F9CFDF91CF91DF
:100CB0001F910F910895CF93DF93EC0188818823D2
:100CC00029F02196ABDF89918111FCCFDF91CF9183
:100CD0000895C098C198C298C398C498C698C798F8
:100CE000C598B89AB99ABA9ABB9ABC9ABE9ABF9A52
:100CF000BD9A12BA8FEF81BB0895C398C498C69865
:100D0000C798813041F028F0823039F0833039F0D3
:100D10000895C39A0895C49A0895C69A0895C79AE3
:100D20000895F894EADF8FEF82BBC09811BAC19A98
:100D3000C29A00000000879B0CC0C298000000000F
:100D400000000000C29A0000000000000000879927
:100D5000F4CFC298C1988FEF81BB78940895CF9358
:100D6000C62FF894DEDFC098C198C29A8FEF81BB7E
:100D7000C2BB0000000000000000000000000000F6
:100D80000000C2987894CF910895882311F0C598F7
:100D90000895C59A0895CF93DF93CCE6D0E0888379
:100DA00060E480E0DCDF1A8260E481E0D8DF1C824E
:100DB0008881682F6F7360648295869586958370AD
:100DC000CEDFDF91CF910895CF9380936D00C82F30
:100DD000C86B6C2F80E0C3DF6C2F81E0C0DFCF9148
:100DE00008950F931F93CF93DF93D82F0CE610E055
:100DF000D801EC91CE2FC295C695C695C370F894D4
:100E00008C2F8FDFC09AC198C29A8FEF81BBD2BB63
:100E100000000000000000000000000000000000D2
:100E2000C2987894EC2FF0E0EE0FFF1FE259FF4FCD
:100E300080818F5F8083F80180818F5F808388232A
:100E400034F481818F5F8183BFDF80E0A4DFDF9195
:100E5000CF911F910F9108950F931F93CF93DF931D
:100E60000CE610E0D801EC91CE2FC295C695C69540
:100E7000C370F8948C2F55DFC09A11BAC19AC29AE8
:100E80000000000000000000000000000000000062
:100E9000D0B3C298C1987894EC2FF0E0EE0FFF1F0A
:100EA000E259FF4F80818F5F8083F80180818F5FDF
:100EB0008083882334F481818F5F818385DF80E0A4
:100EC0006ADF8D2FDF91CF911F910F910895CF93FE
:100ED000C82FC06C6C2F80E042DF6C2F81E03FDFB9
:100EE000CF910895CF93C82F862F6EDF8C2F53DFBD
:100EF000CF91089580E0EBDF60E080E0F3DFECE687
:100F0000F0E012821382148215820895CF93DF934A
:100F1000D0E06D2F80E0E6DFC0E080E062DFCF5FF1
:100F2000C038D9F7DF5FD830A1F7DF91CF910895AE
:100F3000D0DE80E02ADF6FE380E011DF6FE381E045
:100F40000EDFE4DFD7DF0895962F990F960F682FF5
:100F5000892F880FC7DF0895EBDF8EE096E08AD0F7
:100F6000A12CB12C0F2EF7E2CF2EF2E0DF2EF02DC8
:100F7000992493940F2EF6E3EF2EF6E0FF2EF02D3A
:100F800006E31AE0C3DFB6DF27E0A216B10408F0DB
:100F900044C0F501ED5EFF4F09941F921F92DF924E
:100FA000CF929F9286D00F900F900F900F900F903E
:100FB000A12CB12C4FC024E648E265E08AE083DD35
:100FC00049C044E160E280E4B2DD44C066E070E024
:100FD00082E090E0B9DF80E690E06DDE3BC067E044
:100FE00070E083E090E0B0DF80E03CDE33C0C6E339
:100FF000D6E0FE01849190E0F4DE2196C017D1077F
:10100000C1F728C0C6E3D2E0FE01849190E0E9DE9A
:101010002196CE15DF05C1F711C0FFE72AE186E072
:10102000F15020408040E1F700C000009FEFA91A76
:10103000B90AE7E0AE16B104D4F4A4CFFFE72AE181
:1010400086E0F15020408040E1F700C000005EDF04
:1010500051DFA3CF9FE7EAE1F6E09150E040F04096
:10106000E1F700C000002FEFA21AB20A8BCF4EDFCB
:1010700041DF93CF90936B0080936A000895CF93E4
:10108000C82F8A3031F4E0916A00F0916B008DE056
:101090000995E0916A00F0916B008C2F0995CF9132
:1010A00008958F70E82FF0E0EA5CF54F8491E7DF58
:1010B00008952F923F924F925F926F927F928F92FC
:1010C0009F92AF92BF92CF92DF92EF92FF920F93D7
:1010D0001F93CF93DF93CDB7DEB77D88CE88DF88AF
:1010E0004E0128E1820E911C512C612C412C05C02F
:1010F000882309F486C0C3DF6801772041F08601A8
:101100000F5F1F4FF6018491853291F708C0F601F9
:101110008081853251F086010F5F1F4FE9CFF2E0E9
:10112000CF0ED11CF801849106C0F6018181960191
:101130002E5F3F4F6901843669F0883709F453C048
:10114000833631F4F401808194012E5F3F4F4901D1
:1011500096DFD3CFF401E080F18032E0830E911C62
:10116000FF202CF4F194E194F1088DE288DF80E116
:10117000E81687E2F806C8F400E117E29801ADEC42
:10118000BCEC68D08C0116950795169507951695B9
:1011900007950230110588F0E016F10678F30F2E5E
:1011A000FAE02F2EF02D352C0DC00F2EFAE02F2E49
:1011B000F02D352C00E117E205C00F2EFAE02F2E9E
:1011C000F02D352CC701B80131D0A82EB92E862FAD
:1011D00068DFEA2CFB2CC801622D732D27D08B0110
:1011E000672B81F78ACFF401E080F18094012E5FB4
:1011F0003F4F49016894222424F8362C042D10E135
:10120000E1CF80E090E0DF91CF911F910F91FF90AF
:10121000EF90DF90CF90BF90AF909F908F907F9096
:101220006F905F904F903F902F900895AA1BBB1B2B
:1012300051E107C0AA1FBB1FA617B70710F0A61BD6
:10124000B70B881F991F5A95A9F780959095BC01F7
:10125000CD010895A29FB001B39FC001A39F01D00B
:10126000B29F700D811D1124911D0895F894FFCF38
:0A1270004661726144617273000070
:00000001FF
