S00E00004D656C6F64792E73726563AC
S113000012C019C018C017C016C015C014C013C040
S113001012C011C010C00FC00EC00DC00CC00BC068
S11300200AC009C008C011241FBECFE5D4E0DEBF5A
S1130030CDBF1FD029C0E4CFBE9A11C0C69A1816EE
S113004019068CF420E030E02F5F3F4F82179307AE
S1130050D9F70BC02F5F3F4F82179307D9F7615031
S1130060710960F70895C698FACFC69820E030E089
S1130070F1CF60E570E088EC90E0DEDF60EA70E0EC
S10F008084E690E0D9DFF5CFF894FFCFC0
S9030000FC
