:1000000029C038C037C036C035C034C033C032C054
:1000100031C030C02FC02EC02DC02CC02BC02AC074
:1000200029C028C027C048443434373830203278BB
:100030003136204C43440046617261446172730062
:100040002564003031323334353637383941424354
:100050004445460011241FBECFE5D4E0DEBFCDBF2E
:1000600020E0A0E6B0E001C01D92A236B207E1F7A1
:10007000E9D03AC2C5CFC598C698C798BD9ABE9A6E
:10008000BF9A81B38F7081BB82B3806F82BB0895AA
:10009000C59881B38F7081BB82B3806F82BBC69AD3
:1000A000C79A000000000000879B1EC0C798000090
:1000B00000000000000000000000C79A00000000DF
:1000C0000000000000000000C798000000000000D1
:1000D000000000000000C79A0000000000000000BF
:1000E000000000008799E2CFC7980895CF93C82FEA
:1000F000CFDFC598C698C79A81B3806F81BB82B3A2
:100100008F709C2F907F892B82BB00000000000025
:10011000000000000000C798000000000000000080
:1001200000000000C79A82B3282F2F7030E1C39FD0
:10013000C0011124822B82BB0000000000000000DF
:1001400000000000C79881B38F7081BB82B3806FBD
:1001500082BBCF910895CF93C82F9ADFC59AC698D6
:10016000C79A81B3806F81BB82B38F709C2F907FC1
:10017000892B82BB0000000000000000000000008E
:10018000C798000000000000000000000000C79AAF
:1001900082B3282F2F7030E1C39FC0011124822B1E
:1001A00082BB000000000000000000000000C798B3
:1001B00081B38F7081BB82B3806F82BBCF91089572
:1001C0005ADF88E293DF81E091DF87E99AE30197C4
:1001D000F1F700C0000086E089DF8CE087DF82E075
:1001E00085DF80E883DF089581E080DF0895623055
:1001F00031F0633031F0613029F4805C03C08C5EF3
:1002000001C08C5A806872DF0895B89A11C0C09AF4
:10021000181619068CF420E030E02F5F3F4F82174C
:100220009307D9F70BC02F5F3F4F82179307D9F77A
:100230006150710960F70895C098FACFC09820E026
:1002400030E0F1CFBDDF8BEA90E052D0CAE0D0E0E1
:1002500000E410E0FF24F394C7DF60E087E0C7DF2D
:10026000DF93CF931F930F93FF9261D060E570E00F
:1002700084E690E0CADF9FE32DE083E091502040C8
:100280008040E1F700C0000021970F900F900F9081
:100290000F900F90CF3F9FEFD907F1F660E570E028
:1002A00088EC90E0B2DF60EA70E084E690E0ADDFD9
:1002B00060E471E082E390E0A8DF96DF60E084E034
:1002C00096DF87E390E09F938F93C1E0CF932FD089
:1002D00061E080E08CDF86E290E09F938F93CF9384
:1002E00026D00F900F900F900F900F900F90FFCF90
:1002F00090936100809360000895CF93C82F8A3057
:1003000031F4E0916000F09161008DE00995E09199
:100310006000F09161008C2F0995CF9108958F7046
:10032000E82FF0E0ED5BFF4F8491E7DF08952F9217
:100330003F924F925F926F927F928F929F92AF9275
:10034000BF92CF92DF92EF92FF920F931F93CF93C2
:10035000DF93CDB7DEB77D88CE88DF884E0128E1F8
:10036000820E911C512C612C412C05C0882309F46C
:1003700086C0C3DF6801772041F086010F5F1F4F01
:10038000F6018491853291F708C0F60180818532AB
:1003900051F086010F5F1F4FE9CFF2E0CF0ED11C65
:1003A000F801849106C0F601818196012E5F3F4FCE
:1003B0006901843669F0883709F453C0833631F413
:1003C000F401808194012E5F3F4F490196DFD3CF26
:1003D000F401E080F18032E0830E911CFF202CF4C8
:1003E000F194E194F1088DE288DF80E1E81687E27C
:1003F000F806C8F400E117E29801ADECBCEC68D057
:100400008C01169507951695079516950795023058
:10041000110588F0E016F10678F30F2EFAE02F2E82
:10042000F02D352C0DC00F2EFAE02F2EF02D352C8F
:1004300000E117E205C00F2EFAE02F2EF02D352C2B
:10044000C701B80131D0A82EB92E862F68DFEA2C5B
:10045000FB2CC801622D732D27D08B01672B81F7F0
:100460008ACFF401E080F18094012E5F3F4F490173
:100470006894222424F8362C042D10E1E1CF80E08A
:1004800090E0DF91CF911F910F91FF90EF90DF905F
:10049000CF90BF90AF909F908F907F906F905F9024
:1004A0004F903F902F900895AA1BBB1B51E107C0AE
:1004B000AA1FBB1FA617B70710F0A61BB70B881FF4
:1004C000991F5A95A9F780959095BC01CD01089583
:1004D000A29FB001B39FC001A39F01D0B29F700D36
:0C04E000811D1124911D0895F894FFCF98
:00000001FF
